{
  "transactions": [
    {
      "hash": "0xd8b54adfbe6c58634082fef68247d6ec526decee8e36f7d736204771cefd38e0",
      "transactionType": "CALL",
      "contractName": null,
      "contractAddress": "0xdfc763eb175822b60b98e92dfc2d6ba638f68fb7",
      "function": "register(string,address)",
      "arguments": [
        "testname",
        "0x1192ebAE3138F066c3914E428c0a29A8e39668E7"
      ],
      "transaction": {
        "from": "0x1192ebae3138f066c3914e428c0a29a8e39668e7",
        "to": "0xdfc763eb175822b60b98e92dfc2d6ba638f68fb7",
        "gas": "0x435ab",
        "value": "0x0",
        "input": "0x1e59c52900000000000000000000000000000000000000000000000000000000000000400000000000000000000000001192ebae3138f066c3914e428c0a29a8e39668e70000000000000000000000000000000000000000000000000000000000000008746573746e616d65000000000000000000000000000000000000000000000000",
        "nonce": "0xb",
        "chainId": "0x14a34"
      },
      "additionalContracts": [],
      "isFixedGasLimit": false
    }
  ],
  "receipts": [
    {
      "status": "0x1",
      "cumulativeGasUsed": "0x47ff90",
      "logs": [
        {
          "address": "0x6c72038c6fb5add846b2efc37a04b535cbcac5e8",
          "topics": [
            "0x65412581168e88a1e60c6459d7f44ae83ad0832e670826c05a4e2476b57af752",
            "0x4a98e4356acb6303bae334d593d46317a6fc833393436453159f71a59e46df5a"
          ],
          "data": "0x0000000000000000000000000000000000000000000000000000000080014a34000000000000000000000000000000000000000000000000000000000000004000000000000000000000000000000000000000000000000000000000000000141192ebae3138f066c3914e428c0a29a8e39668e7000000000000000000000000",
          "blockHash": "0x35eb69aed113e538b165f86144c83385fb4ba7b8bf16d649f3123aa60c75c863",
          "blockNumber": "0x238bcd0",
          "blockTimestamp": "0x6984d880",
          "transactionHash": "0xd8b54adfbe6c58634082fef68247d6ec526decee8e36f7d736204771cefd38e0",
          "transactionIndex": "0x13",
          "logIndex": "0x7b",
          "removed": false
        },
        {
          "address": "0x6c72038c6fb5add846b2efc37a04b535cbcac5e8",
          "topics": [
            "0x65412581168e88a1e60c6459d7f44ae83ad0832e670826c05a4e2476b57af752",
            "0x4a98e4356acb6303bae334d593d46317a6fc833393436453159f71a59e46df5a"
          ],
          "data": "0x000000000000000000000000000000000000000000000000000000000000003c000000000000000000000000000000000000000000000000000000000000004000000000000000000000000000000000000000000000000000000000000000141192ebae3138f066c3914e428c0a29a8e39668e7000000000000000000000000",
          "blockHash": "0x35eb69aed113e538b165f86144c83385fb4ba7b8bf16d649f3123aa60c75c863",
          "blockNumber": "0x238bcd0",
          "blockTimestamp": "0x6984d880",
          "transactionHash": "0xd8b54adfbe6c58634082fef68247d6ec526decee8e36f7d736204771cefd38e0",
          "transactionIndex": "0x13",
          "logIndex": "0x7c",
          "removed": false
        },
        {
          "address": "0x6c72038c6fb5add846b2efc37a04b535cbcac5e8",
          "topics": [
            "0x52d7d861f09ab3d26239d492e8968629f95e9e318cf0b73bfddc441522a15fd2",
            "0x4a98e4356acb6303bae334d593d46317a6fc833393436453159f71a59e46df5a"
          ],
          "data": "0x0000000000000000000000001192ebae3138f066c3914e428c0a29a8e39668e7",
          "blockHash": "0x35eb69aed113e538b165f86144c83385fb4ba7b8bf16d649f3123aa60c75c863",
          "blockNumber": "0x238bcd0",
          "blockTimestamp": "0x6984d880",
          "transactionHash": "0xd8b54adfbe6c58634082fef68247d6ec526decee8e36f7d736204771cefd38e0",
          "transactionIndex": "0x13",
          "logIndex": "0x7d",
          "removed": false
        },
        {
          "address": "0x6c72038c6fb5add846b2efc37a04b535cbcac5e8",
          "topics": [
            "0xddf252ad1be2c89b69c2b068fc378daa952ba7f163c4a11628f55a4df523b3ef",
            "0x0000000000000000000000000000000000000000000000000000000000000000",
            "0x0000000000000000000000001192ebae3138f066c3914e428c0a29a8e39668e7",
            "0x4a98e4356acb6303bae334d593d46317a6fc833393436453159f71a59e46df5a"
          ],
          "data": "0x",
          "blockHash": "0x35eb69aed113e538b165f86144c83385fb4ba7b8bf16d649f3123aa60c75c863",
          "blockNumber": "0x238bcd0",
          "blockTimestamp": "0x6984d880",
          "transactionHash": "0xd8b54adfbe6c58634082fef68247d6ec526decee8e36f7d736204771cefd38e0",
          "transactionIndex": "0x13",
          "logIndex": "0x7e",
          "removed": false
        },
        {
          "address": "0x6c72038c6fb5add846b2efc37a04b535cbcac5e8",
          "topics": [
            "0xce0457fe73731f824cc272376169235128c118b49d344817417c6d108d155e82",
            "0xf802eb4ab69ec1d94b1a9a617132120d15ecac05651c547d8c782a9b5452e7ee",
            "0x53efe8e9c86b9b419daae472d86e63ed903fc7732a3117b6b2c1beabc5acb984"
          ],
          "data": "0x0000000000000000000000001192ebae3138f066c3914e428c0a29a8e39668e7",
          "blockHash": "0x35eb69aed113e538b165f86144c83385fb4ba7b8bf16d649f3123aa60c75c863",
          "blockNumber": "0x238bcd0",
          "blockTimestamp": "0x6984d880",
          "transactionHash": "0xd8b54adfbe6c58634082fef68247d6ec526decee8e36f7d736204771cefd38e0",
          "transactionIndex": "0x13",
          "logIndex": "0x7f",
          "removed": false
        },
        {
          "address": "0x6c72038c6fb5add846b2efc37a04b535cbcac5e8",
          "topics": [
            "0x54dcb73b69bb8751ea76a9869fb42238e1a04b363c9c1d076a03799c5c8da6f7",
            "0x4a98e4356acb6303bae334d593d46317a6fc833393436453159f71a59e46df5a"
          ],
          "data": "0x00000000000000000000000000000000000000000000000000000000000000400000000000000000000000001192ebae3138f066c3914e428c0a29a8e39668e7000000000000000000000000000000000000000000000000000000000000001508746573746e616d650679656c6c6f7703657468000000000000000000000000",
          "blockHash": "0x35eb69aed113e538b165f86144c83385fb4ba7b8bf16d649f3123aa60c75c863",
          "blockNumber": "0x238bcd0",
          "blockTimestamp": "0x6984d880",
          "transactionHash": "0xd8b54adfbe6c58634082fef68247d6ec526decee8e36f7d736204771cefd38e0",
          "transactionIndex": "0x13",
          "logIndex": "0x80",
          "removed": false
        },
        {
          "address": "0xdfc763eb175822b60b98e92dfc2d6ba638f68fb7",
          "topics": [
            "0x1c6eac0e720ec22bb0653aec9c19985633a4fb07971cf973096c2f8e3c37c17f",
            "0x53efe8e9c86b9b419daae472d86e63ed903fc7732a3117b6b2c1beabc5acb984",
            "0x0000000000000000000000001192ebae3138f066c3914e428c0a29a8e39668e7"
          ],
          "data": "0x",
          "blockHash": "0x35eb69aed113e538b165f86144c83385fb4ba7b8bf16d649f3123aa60c75c863",
          "blockNumber": "0x238bcd0",
          "blockTimestamp": "0x6984d880",
          "transactionHash": "0xd8b54adfbe6c58634082fef68247d6ec526decee8e36f7d736204771cefd38e0",
          "transactionIndex": "0x13",
          "logIndex": "0x81",
          "removed": false
        }
      ],
      "logsBloom": "0x0000020000000000000000000000010000000000000200000000000010000001000000000000000400000000000000000000000000001000000000000000000000000000000000000800000800000000000000000410000000000000004000000000000002000000000000000000080000000010000000000000001000000000004800200000000000100000000000000004000a000000000000000000000000000000000002010008000000040000000008000000000000000000040000100000100002000000000800000000004000000000000400000000000004000020000200000000000000000004000000000000000000000000000000000000000000",
      "type": "0x2",
      "transactionHash": "0xd8b54adfbe6c58634082fef68247d6ec526decee8e36f7d736204771cefd38e0",
      "transactionIndex": "0x13",
      "blockHash": "0x35eb69aed113e538b165f86144c83385fb4ba7b8bf16d649f3123aa60c75c863",
      "blockNumber": "0x238bcd0",
      "gasUsed": "0x30c37",
      "effectiveGasPrice": "0x124f80",
      "blobGasUsed": "0x7b18",
      "from": "0x1192ebae3138f066c3914e428c0a29a8e39668e7",
      "to": "0xdfc763eb175822b60b98e92dfc2d6ba638f68fb7",
      "contractAddress": null,
      "daFootprintGasScalar": "0x138",
      "l1BaseFeeScalar": "0x44d",
      "l1BlobBaseFee": "0x39f29c8",
      "l1BlobBaseFeeScalar": "0xa118b",
      "l1Fee": "0x27f751489",
      "l1GasPrice": "0x3c9d8679",
      "l1GasUsed": "0x654"
    }
  ],
  "libraries": [],
  "pending": [],
  "returns": {},
  "timestamp": 1770313855746,
  "chain": 84532,
  "commit": "b3fd663"
}